{
  "contractName": "WalletWall",
  "abi": [
    {
      "inputs": [],
      "stateMutability": "nonpayable",
      "type": "constructor"
    },
    {
      "anonymous": false,
      "inputs": [
        {
          "indexed": false,
          "internalType": "address",
          "name": "sender",
          "type": "address"
        },
        {
          "indexed": false,
          "internalType": "string",
          "name": "content",
          "type": "string"
        }
      ],
      "name": "MessagePublished",
      "type": "event"
    },
    {
      "inputs": [
        {
          "internalType": "uint256",
          "name": "",
          "type": "uint256"
        }
      ],
      "name": "messages",
      "outputs": [
        {
          "internalType": "address",
          "name": "sender",
          "type": "address"
        },
        {
          "internalType": "string",
          "name": "content",
          "type": "string"
        }
      ],
      "stateMutability": "view",
      "type": "function",
      "constant": true
    },
    {
      "inputs": [],
      "name": "owner",
      "outputs": [
        {
          "internalType": "address payable",
          "name": "",
          "type": "address"
        }
      ],
      "stateMutability": "view",
      "type": "function",
      "constant": true
    },
    {
      "inputs": [
        {
          "internalType": "string",
          "name": "content",
          "type": "string"
        }
      ],
      "name": "publish",
      "outputs": [],
      "stateMutability": "payable",
      "type": "function",
      "payable": true
    },
    {
      "inputs": [],
      "name": "getMessages",
      "outputs": [
        {
          "components": [
            {
              "internalType": "address",
              "name": "sender",
              "type": "address"
            },
            {
              "internalType": "string",
              "name": "content",
              "type": "string"
            }
          ],
          "internalType": "struct WalletWall.Message[]",
          "name": "",
          "type": "tuple[]"
        }
      ],
      "stateMutability": "view",
      "type": "function",
      "constant": true
    }
  ],
  "bytecode": "0x608060405234801561001057600080fd5b5033600160006101000a81548173ffffffffffffffffffffffffffffffffffffffff021916908373ffffffffffffffffffffffffffffffffffffffff160217905550610b86806100616000396000f3fe60806040526004361061003f5760003560e01c80630d80fefd14610044578063243e280b146100825780635ff6cbf31461009e5780638da5cb5b146100c9575b600080fd5b34801561005057600080fd5b5061006b6004803603610066919081019061069f565b6100f4565b604051610079929190610926565b60405180910390f35b61009c6004803603610097919081019061065e565b6101dd565b005b3480156100aa57600080fd5b506100b36103a3565b6040516100c09190610956565b60405180910390f35b3480156100d557600080fd5b506100de6104fa565b6040516100eb91906108db565b60405180910390f35b6000818154811061010157fe5b90600052602060002090600202016000915090508060000160009054906101000a900473ffffffffffffffffffffffffffffffffffffffff1690806001018054600181600116156101000203166002900480601f0160208091040260200160405190810160405280929190818152602001828054600181600116156101000203166002900480156101d35780601f106101a8576101008083540402835291602001916101d3565b820191906000526020600020905b8154815290600101906020018083116101b657829003601f168201915b5050505050905082565b6000600a3a0290508060020234101561022b576040517f08c379a000000000000000000000000000000000000000000000000000000000815260040161022290610978565b60405180910390fd5b600160009054906101000a900473ffffffffffffffffffffffffffffffffffffffff1673ffffffffffffffffffffffffffffffffffffffff166108fc6002348161027157fe5b049081150290604051600060405180830381858888f1935050505015801561029d573d6000803e3d6000fd5b506102a6610520565b60405180604001604052803373ffffffffffffffffffffffffffffffffffffffff168152602001848152509050600081908060018154018082558091505060019003906000526020600020906002020160009091909190915060008201518160000160006101000a81548173ffffffffffffffffffffffffffffffffffffffff021916908373ffffffffffffffffffffffffffffffffffffffff1602179055506020820151816001019080519060200190610362929190610550565b5050507f296f958024e31feaffa788f1f930bb472244f0307f637acb867fb63e3b2af2e033846040516103969291906108f6565b60405180910390a1505050565b60606000805480602002602001604051908101604052809291908181526020016000905b828210156104f157838290600052602060002090600202016040518060400160405290816000820160009054906101000a900473ffffffffffffffffffffffffffffffffffffffff1673ffffffffffffffffffffffffffffffffffffffff1673ffffffffffffffffffffffffffffffffffffffff168152602001600182018054600181600116156101000203166002900480601f0160208091040260200160405190810160405280929190818152602001828054600181600116156101000203166002900480156104d95780601f106104ae576101008083540402835291602001916104d9565b820191906000526020600020905b8154815290600101906020018083116104bc57829003601f168201915b505050505081525050815260200190600101906103c7565b50505050905090565b600160009054906101000a900473ffffffffffffffffffffffffffffffffffffffff1681565b6040518060400160405280600073ffffffffffffffffffffffffffffffffffffffff168152602001606081525090565b828054600181600116156101000203166002900490600052602060002090601f016020900481019282601f1061059157805160ff19168380011785556105bf565b828001600101855582156105bf579182015b828111156105be5782518255916020019190600101906105a3565b5b5090506105cc91906105d0565b5090565b6105f291905b808211156105ee5760008160009055506001016105d6565b5090565b90565b600082601f83011261060657600080fd5b8135610619610614826109c5565b610998565b9150808252602083016020830185838301111561063557600080fd5b610640838284610ae6565b50505092915050565b60008135905061065881610b39565b92915050565b60006020828403121561067057600080fd5b600082013567ffffffffffffffff81111561068a57600080fd5b610696848285016105f5565b91505092915050565b6000602082840312156106b157600080fd5b60006106bf84828501610649565b91505092915050565b60006106d4838361089e565b905092915050565b6106e581610ab0565b82525050565b6106f481610a74565b82525050565b61070381610a62565b82525050565b61071281610a62565b82525050565b600061072382610a01565b61072d8185610a2f565b93508360208202850161073f856109f1565b8060005b8581101561077b578484038952815161075c85826106c8565b945061076783610a22565b925060208a01995050600181019050610743565b50829750879550505050505092915050565b600061079882610a17565b6107a28185610a51565b93506107b2818560208601610af5565b6107bb81610b28565b840191505092915050565b60006107d182610a0c565b6107db8185610a40565b93506107eb818560208601610af5565b6107f481610b28565b840191505092915050565b600061080a82610a0c565b6108148185610a51565b9350610824818560208601610af5565b61082d81610b28565b840191505092915050565b6000610845603383610a51565b91507f496e73756666696369656e74207061796d656e743a206d75737420706179206660008301527f6f722067617320616e6420617070206665652e000000000000000000000000006020830152604082019050919050565b60006040830160008301516108b660008601826106fa565b50602083015184820360208601526108ce82826107c6565b9150508091505092915050565b60006020820190506108f060008301846106eb565b92915050565b600060408201905061090b60008301856106dc565b818103602083015261091d818461078d565b90509392505050565b600060408201905061093b6000830185610709565b818103602083015261094d81846107ff565b90509392505050565b600060208201905081810360008301526109708184610718565b905092915050565b6000602082019050818103600083015261099181610838565b9050919050565b6000604051905081810181811067ffffffffffffffff821117156109bb57600080fd5b8060405250919050565b600067ffffffffffffffff8211156109dc57600080fd5b601f19601f8301169050602081019050919050565b6000819050602082019050919050565b600081519050919050565b600081519050919050565b600081519050919050565b6000602082019050919050565b600082825260208201905092915050565b600082825260208201905092915050565b600082825260208201905092915050565b6000610a6d82610a86565b9050919050565b6000610a7f82610a86565b9050919050565b600073ffffffffffffffffffffffffffffffffffffffff82169050919050565b6000819050919050565b6000610abb82610ac2565b9050919050565b6000610acd82610ad4565b9050919050565b6000610adf82610a86565b9050919050565b82818337600083830152505050565b60005b83811015610b13578082015181840152602081019050610af8565b83811115610b22576000848401525b50505050565b6000601f19601f8301169050919050565b610b4281610aa6565b8114610b4d57600080fd5b5056fea2646970667358221220050efd81dec017e5eb2467842f4f32cecce7b0e856f69de9e9f54ecfa715c7e664736f6c63430006000033",
  "source": "pragma solidity >= 0.6.0;\npragma experimental ABIEncoderV2; // Habilitar ABIEncoderV2\n\ncontract WalletWall {\n    struct Message {\n        address sender;\n        string content;\n    }\n\n    Message[] public messages;\n    address payable public owner;\n\n    event MessagePublished(address sender, string content);\n\n    constructor() public {\n        owner = payable(msg.sender);\n    }\n\n    function publish(string memory content) public payable {\n        uint256 gasCost = tx.gasprice * 10; // Estimación aproximada del costo de gas para una transacción simple\n\n        require(msg.value >= 2 * gasCost, \"Insufficient payment: must pay for gas and app fee.\");\n\n        owner.transfer(msg.value / 2); // Envía la mitad del pago al propietario (la tarifa de la app)\n\n        Message memory newMessage = Message({\n            sender: msg.sender,\n            content: content\n        });\n        messages.push(newMessage);\n\n        emit MessagePublished(msg.sender, content);\n    }\n\n    function getMessages() public view returns (Message[] memory) {\n        return messages;\n    }\n}\n",
  "sourcePath": "/Users/pabloflores/Desktop/DAppMuro/src/contracts/WalletWall.sol",
  "compiler": {
    "name": "solc",
    "version": "0.6.0+commit.26b70077.Emscripten.clang"
  },
  "schemaVersion": "3.4.16",
  "updatedAt": "2024-01-30T04:26:59.594Z",
  "networkType": "ethereum",
  "devdoc": {
    "methods": {}
  },
  "userdoc": {
    "methods": {}
  }
}